:100000000C9472000C9493000C9493000C94930045
:100010000C9493000C9493000C9493000C94930014
:100020000C9493000C9493000C9493000C94930004
:100030000C9493000C9493000C9493000C949300F4
:100040000C9493000C9493000C9493000C949300E4
:100050000C9493000C9493000C9493000C949300D4
:100060000C9493000C9493000C9493000C949300C4
:100070000C9493000C9493000C9493000C949300B4
:100080000C9493000C9493000C9493000C949300A4
:100090000C9493000C9493000C9493000C94930094
:1000A0000C9493000C9495000C9493000C94930082
:1000B0000C9493000C9433010C94E4000C94930082
:1000C0000C9493000C9493000C9447010C949300AF
:1000D0000C9493000C9493000C947F030C94930065
:1000E0000C94930011241FBECFEFD1E2DEBFCDBF31
:1000F00000E00CBF12E0A0E0B2E0E8E4FEE000E0C7
:100100000BBF02C007900D92A630B107D9F722E0CD
:10011000A6E0B2E001C01D92A036B207E1F70E944E
:10012000AB010C9422070C9400000F920FB60F92B3
:100130001F9211242F932BB72F933F936F937F938D
:100140008F939F93AF93BF93EF93FF938091A10001
:1001500086FF1EC08091A6009091A70090930D028B
:1001600080930C02E1EAF0E080818F7B8083FF9135
:10017000EF91BF91AF919F918F917F916F913F913F
:100180002F912BBF2F911F900F900FBE0F9018959E
:100190002091A6003091A70080910C0290910D0251
:1001A000281B390BA9E0BCE80E940C040024880F2E
:1001B000991F001C880F991F001C892F902D909368
:1001C000090280930802D3CF0F920FB60F921F92AD
:1001D00011242F932BB72F933F936F937F938F937C
:1001E0009F93AF93BF93EF93FF938091210186FF7D
:1001F0001EC0809126019091270190930B0280935D
:100200000A02E1E2F1E080818F7B8083FF91EF9130
:10021000BF91AF919F918F917F916F913F912F915E
:100220002BBF2F911F900F900FBE0F90189520910C
:1002300026013091270180910A0290910B02281B20
:10024000390BA9E0BCE80E940C040024880F991F18
:10025000001C880F991F001C892F902D9093070276
:1002600080930602D3CF8F938FB78F938BB78F93E3
:10027000EF93FF93E1EAF0E0808180648083FF9157
:10028000EF918F918BBF8F918FBF8F9118958F9327
:100290008FB78F938BB78F93EF93FF93E1E2F1E0EA
:1002A000808180648083FF91EF918F918BBF8F91CC
:1002B0008FBF8F911895EAE0F1E0808180628083A2
:1002C000ABE0B1E08C918F7D8C9380818D7F8083BA
:1002D00080818E7F80838BE0809320018AE58093EC
:1002E000210181E2809373002FEF3FEF30932901CA
:1002F0002093280124E130E030932D0120932C013C
:100300001092A00092E49093A1008093720008954F
:1003100087B1877E87B988B1886188B952985A9A1F
:100320000895982F26B1282380E021110CC08091D8
:100330000E028923882339F0EFE3FCE93197F1F7C6
:1003400000C0000081E0909530910E029323922B23
:1003500090930E0208950E9488010E945B010E9402
:10036000CE020E9407031CC0892BB1F080E10E94DD
:100370009101811132C00E9428028091080290915F
:10038000090245976CF0809106029091070245970B
:100390003CF00E94080404C080E090E00E940A0241
:1003A00080910F02909110028230910501F1E0F2EC
:1003B00083309105B9F0069799F780E090E00E94AC
:1003C0000A024A9BEDCF80E10E949101882341F30C
:1003D0001092100210920F02E3CF81E090E00E9491
:1003E0000A02C9CF80E090E00E940A02D9CF809132
:1003F00000020E948C0280910802909109024497A9
:100400007CF6809106029091070244974CF60E9478
:100410000804C6CF282F392F2115310521F485B1C5
:100420008A6085B90895121613061CF485B1857F7C
:1004300085B9089541EABC0146039001479F300DFC
:100440001124205F384D3093120220931102089539
:1004500080910802909109022091060230910702D2
:10046000821B930B9C019923F4F044E6429FB00158
:10047000439F700D11249923DCF018161906DCF542
:1004800080911102909112029093160280931502AE
:100490008091110290911202860F971F909314027F
:1004A0008093130217C022273327281B390BDDCF77
:1004B0008091110290911202860F971F909316025D
:1004C0008093150280911102909112029093140270
:1004D00080931302809115029091160290938900E7
:1004E0008093880080911302909114029093990058
:1004F0008093980008958091110290911202909338
:10050000160280931502809111029091120290932D
:10051000140280931302DECF813099F0809108029B
:100520009091090206976CF588E893E19093890011
:100530008093880080ED97E09093990080939800D5
:100540000895809106029091070206976CF480ED61
:1005500097E0909389008093880088E893E19093D6
:10056000990080939800089588E893E1909389001A
:100570008093880080ED97E0909399008093980095
:10058000089580ED97E0909389008093880088E833
:1005900093E19093990080939800089584B18F64BB
:1005A00084B96C9A2A9A289885B1857F85B993E297
:1005B000909380008AE18093810010926F00909365
:1005C0009000809391001092710080E197E29093E7
:1005D0001202809311028091110290911202909365
:1005E000890080938800809111029091120290936B
:1005F00099008093980084E090E090938B00809322
:100600008A0090939B0080939A00789408951092AA
:10061000350187E68093340188E98093310186E0D3
:100620008093320178940895E0E3F1E0908195FFA2
:10063000FDCF809336010895CF93DF93C82FD92F34
:100640008881882331F021960E94140389918111B9
:10065000FBCFDF91CF9108950F931F93CF93DF933B
:1006600000D0CDB7DEB71F928F9381E092E09F93C9
:100670008F931F9283E08F938E010F5F1F4F1F9305
:100680000F930E941B04C8010E941C030FB6F8942C
:10069000DEBF0FBECDBF0F900F900F90DF91CF91B7
:1006A0001F910F91089520911F0280911E0230E04A
:1006B000205C3F4F281B3109C9018F739078332389
:1006C0000CF008950197806C9F6F0196FACF90917E
:1006D0001F0280911E02981781F0E0911E02F0E047
:1006E000E05EFD4F808120911E0230E02F5F3F4F82
:1006F0002F73307820931E02089580E008951F9292
:100700001FB61F9211248F938BB78F939F93EF93F4
:10071000FF93E091190281E08E0F80931902F0E0BF
:1007200080913601E65EFD4F80838091190284300E
:1007300051F0FF91EF919F918F918BBF8F911F90FF
:100740001FBE1F901895EAE1F2E0808180931802A5
:1007500081818093170210921902809118028130D2
:10076000F9F080911802813011F1809118028230E5
:1007700049F180911802823061F180911802833032
:1007800081F1809118028330A1F6809117028230A6
:1007900081F684E090E09093100280930F02C9CF1D
:1007A00081E090E09093100280930F02C2CF80917D
:1007B00017028F37D1F683E090E090931002809378
:1007C0000F02B7CF80911702813099F61092000284
:1007D000B0CF80911702823081F681E080930002D1
:1007E000A8CF80911702813061F685E090E0909368
:1007F000100280930F029DCF0E9414038FEF0E947E
:1008000014038FEF0E9414038FEF0E9414030895C6
:1008100081E00E94FC030895A29FB001B39FC00134
:10082000A39F700D811D1124911DB29F700D811D1C
:100830001124911D08950F931F93CF93DF93CDB78C
:10084000DEB72E970FB6F894DEBF0FBECDBF0E8970
:100850001F8986E08C831A830983888D998D813066
:1008600020E8920710F080E090E801979E838D8346
:10087000AE01445E5F4F6A8D7B8DCE0101960E9472
:100880005A044D815E8157FD0AC02F813885421779
:1008900053070CF49A01020F131FF80110822E96D1
:1008A0000FB6F894DEBF0FBECDBFDF91CF911F9181
:1008B0000F9108955F926F927F928F929F92AF9265
:1008C000BF92CF92DF92EF92FF920F931F93CF933D
:1008D000DF93CDB7DEB72F970FB6F894DEBF0FBE0C
:1008E000CDBF6C017B018A01DC0117961C921E9220
:1008F000169713968C9181FFFEC12AE0522EF601C5
:100900009381F70193FD859193FF81917F01882366
:1009100009F473C0853239F493FD859193FF819179
:100920007F01853229F4B60190E00E949406E7CF5A
:10093000912C612C712CFFE1F71508F446C08B3225
:10094000C9F1F8F48032C1F1833209F43BC0833637
:1009500009F49CC0833709F4A5C0833509F0C8C0E9
:10096000F801A190B1908F01692D70E076FC02C072
:100970006FEF7FEFC5010E947E064C01689477F807
:1009800071C08D32E1F0803351F020ED280F2A3014
:1009900048F18E3209F04BC0689476F802C0689432
:1009A00070F8F70193FD859193FF81917F0181118B
:1009B000C2CF45C0689471F8689472F8F2CF689419
:1009C00073F8EFCF689474F8ECCF77FC38C020ED63
:1009D000280F2A3070F476FE05C0959C200D112456
:1009E000922EDFCF659C200D1124622E689475F83D
:1009F000D8CF8E32E1F476FECFCFD60116968D9108
:100A00009C912F960FB6F894DEBF0FBECDBFDF913D
:100A1000CF911F910F91FF90EF90DF90CF90BF90FB
:100A2000AF909F908F907F906F905F9008958C36DD
:100A300019F4689477F8B5CF883609F4B2CF982FB7
:100A40009F7D9554933008F082CF0C5F1F4F8FE34A
:100A5000898388248394912CAE014F5F5F4F5A01A4
:100A6000E89477F873FC05C0862D90E08816990607
:100A700040F18114910461F5662009F440CFB6017C
:100A800080E290E00E9494066A94F6CFD8018C919F
:100A900089830E5F1F4F88248394912CFE01319629
:100AA0005F01DECFD801AD90BD908D01692D70E062
:100AB00076FC02C06FEF7FEFC5010E9489064C01F2
:100AC000CFCFB60180E290E00E9494066A94CCCF2A
:100AD000F50177FC859177FE81915F01B60190E089
:100AE0000E94940661106A94F1E08F1A9108C1CFB8
:100AF000843619F0893609F081C0F80177FE77C095
:100B000061917191819191918F01272D2F76822E84
:100B100097FF09C090958095709561957F4F8F4F95
:100B20009F4F689487F82AE030E0AE014F5F5F4F37
:100B30005A010E94C4068A19A82EBA2C782C86FE67
:100B40000CC0E89470F8A91440F484FE05C082FC3F
:100B500003C0782D7E7E772EB92C74FEA5C0FE01D1
:100B6000EA0DF11D8081803309F097C0872D897EC1
:100B7000782E73FC0EC070FEA6C09A2CB61418F422
:100B8000960C9B18B62C862D8B196B1408F480E0FC
:100B9000B80EB61408F099C06B1874FE98C0B60170
:100BA00080E390E00E94940672FE09C088E590E020
:100BB00071FC02C088E790E0B6010E949406A91477
:100BC00008F492C0AA94B12C9FEFA91AB90ADE01C9
:100BD00011964D01AA0EBB1EF50182915F01B6016F
:100BE00090E00E9494068A149B04B1F745CF61916E
:100BF0007191072E000C880B990B86CF872CE894F7
:100C000084F82AE030E0853769F0572D597F852E2A
:100C1000803771F118F5883571F18F3609F0EDCE16
:100C200028E030E0F80187FE2EC081919191A191DA
:100C3000B1918C879D87AE87BF878F01BE016F5FA3
:100C40007F4F5B01AB016C857D858E859F850E9402
:100C5000C4068A19A82EE89487F86FCF883709F060
:100C6000CCCE84FE02C0689482F820E130E0DACF76
:100C7000689484F8F6CF74FE03C0652F6660862EF4
:100C800020E132E0CFCF81919191AC0160E070E042
:100C90004C875D876E877F87D0CF72FC02C0B3948C
:100CA00068CFB394B39465CF872D8678882309F4F1
:100CB00060CFF5CFB60180E290E00E949406839465
:100CC0008614C0F360CF8B2CFBCF612C66CF872DB1
:100CD0008678882309F473CF8BE271FE80E277FC7B
:100CE0008DE2B60190E069CFB60180E390E00E940A
:100CF00094069A9464CF8FEF9FEF83CEFC0105900A
:100D0000615070400110D8F7809590958E0F9F1F0D
:100D10000895FC016150704001900110D8F7809552
:100D200090958E0F9F1F08950F931F93CF93DF937E
:100D3000182F092FEB018B8181FD09C01FEF0FEFE9
:100D4000812F902FDF91CF911F910F91089582FFF6
:100D500014C02E813F818C819D81281739073CF476
:100D6000E881F981CF0101969983888310838E8170
:100D70009F8101969F838E83E3CFE885F985812F3C
:100D80001995892BA1F3DACFFA01AA27283051F15E
:100D9000203181F1E8946F936E7F6E5F7F4F8F4FAC
:100DA0009F4FAF4FB1E03ED0B4E03CD0670F781F0B
:100DB000891F9A1FA11D680F791F8A1F911DA11DF0
:100DC0006A0F711D811D911DA11D20D009F4689429
:100DD0003F912AE0269F11243019305D3193DEF6D1
:100DE000CF010895462F4770405D4193B3E00FD087
:100DF000C9F7F6CF462F4F70405D4A3318F0495D72
:100E000031FD4052419302D0A9F7EACFB4E0A69554
:100E10009795879577956795BA95C9F70097610576
:100E2000710508959B01AC010A2E069457954795CC
:100E300037952795BA95C9F7620F731F841F951FC1
:080E4000A01D0895F894FFCFF6
:060E4800012530325800C4
:00000001FF
