:100000000C9472000C9493000C9493000C94930045
:100010000C9493000C9493000C9493000C94930014
:100020000C9493000C9493000C9493000C94930004
:100030000C9493000C9493000C9493000C949300F4
:100040000C9493000C9493000C9493000C949300E4
:100050000C9493000C9493000C9493000C949300D4
:100060000C9493000C9493000C9493000C949300C4
:100070000C9493000C9493000C9493000C949300B4
:100080000C9493000C9493000C9493000C949300A4
:100090000C9493000C9493000C9493000C94930094
:1000A0000C9493000C9495000C9493000C94930082
:1000B0000C9493000C9433010C94E4000C94930082
:1000C0000C9493000C9493000C9447010C949300AF
:1000D0000C9493000C9493000C9493000C94930054
:1000E0000C94930011241FBECFEFD1E2DEBFCDBF31
:1000F00000E00CBF12E0A0E0B2E0E8EAF6E000E0C9
:100100000BBF02C007900D92A230B107D9F722E0D1
:10011000A2E0B2E001C01D92A331B207E1F70E9454
:10012000DA010C9452030C9400000F920FB60F9258
:100130001F9211242F932BB72F933F936F937F938D
:100140008F939F93AF93BF93EF93FF938091A10001
:1001500086FF1EC08091A6009091A700909309028F
:1001600080930802E1EAF0E080818F7B8083FF9139
:10017000EF91BF91AF919F918F917F916F913F913F
:100180002F912BBF2F911F900F900FBE0F9018959E
:100190002091A6003091A700809108029091090259
:1001A000281B390BA9E0BCE80E9443030024880FF8
:1001B000991F001C880F991F001C892F902D909368
:1001C000050280930402D3CF0F920FB60F921F92B5
:1001D00011242F932BB72F933F936F937F938F937C
:1001E0009F93AF93BF93EF93FF938091210186FF7D
:1001F0001EC0809126019091270190930702809361
:100200000602E1E2F1E080818F7B8083FF91EF9134
:10021000BF91AF919F918F917F916F913F912F915E
:100220002BBF2F911F900F900FBE0F90189520910C
:100230002601309127018091060290910702281B28
:10024000390BA9E0BCE80E9443030024880F991FE2
:10025000001C880F991F001C892F902D909303027A
:1002600080930202D3CF8F938FB78F938BB78F93E7
:10027000EF93FF93E1EAF0E0808180648083FF9157
:10028000EF918F918BBF8F918FBF8F9118958F9327
:100290008FB78F938BB78F93EF93FF93E1E2F1E0EA
:1002A000808180648083FF91EF918F918BBF8F91CC
:1002B0008FBF8F911895EAE0F1E0808180628083A2
:1002C000ABE0B1E08C918F7D8C9380818D7F8083BA
:1002D00080818E7F80838BE0809320018AE58093EC
:1002E000210181E2809373002FEF3FEF30932901CA
:1002F0002093280124E130E030932D0120932C013C
:100300001092A00092E49093A1008093720008954F
:1003100087B18F7C87B988B1806388B93A98429A4F
:10032000099A0A9A119812980895129A0895129AA1
:100330000895119A0895119A0895982F26B12823A7
:1003400080E021110CC080910A028923882339F0B2
:10035000EFE3FCE93197F1F700C0000081E09095F0
:1003600030910A029323922B90930A020895809170
:100370000B0290910C02892B39F080910B02909125
:100380000C02019769F0089580E10E949D01882385
:10039000A1F381E090E090930C0280930B02EDCFEB
:1003A00080E20E949D01882371F310920C0210924A
:1003B0000B02E9CF08980E9488010E940A030E945C
:1003C0005B018AE590E00E945602C1E0D0E002E0C5
:1003D00010E01DC0892BB9F00E94640280B1CE01EB
:1003E0000E944602809104029091050245977CF09C
:1003F000809102029091030245974CF010930C02F9
:1004000000930B0204C080E090E00E9446020E942C
:10041000B701329904C010920C0210920B02809125
:100420000B0290910C0282309105D9F098F2833042
:10043000910591F0049759F780E090E00E94460200
:100440004A9BE5CF80E10E949D01882301F3109231
:100450000C0210920B02DBCF80E090E00E9446027B
:10046000D6CF809100020E94C80280910402909130
:100470000502449764F6809102029091030244972A
:1004800034F6D0930C02C0930B02C1CF282F392F22
:100490002115310521F485B18A6085B908951216B8
:1004A00013061CF485B1857F85B9089541EABC0126
:1004B00046039001479F300D1124205F384D309343
:1004C0000E0220930D02089580910402909105027E
:1004D0002091020230910302821B930B9C0199230D
:1004E000F4F044E6429FB001439F700D112499231C
:1004F000DCF018161906DCF580910D0290910E02C1
:10050000909312028093110280910D0290910E023D
:10051000860F971F9093100280930F0217C0222717
:100520003327281B390BDDCF80910D0290910E02ED
:10053000860F971F909312028093110280910D02F3
:1005400090910E029093100280930F0280911102FD
:1005500090911202909389008093880080910F02FD
:100560009091100290939900809398000895809143
:100570000D0290910E0290931202809311028091CD
:100580000D0290910E029093100280930F02DECF25
:10059000813099F0809104029091050206976CF5E4
:1005A00088E893E1909389008093880080ED97E03C
:1005B0009093990080939800089580910202909101
:1005C000030206976CF480ED97E090938900809386
:1005D000880088E893E190939900809398000895AB
:1005E00088E893E1909389008093880080ED97E0FC
:1005F0009093990080939800089580ED97E09093F0
:1006000089008093880088E893E190939900809313
:100610009800089584B18F6484B96C9A2A9A2898B6
:1006200085B1857F85B993E2909380008AE18093BC
:10063000810010926F00909390008093910010922F
:10064000710080E197E290930E0280930D028091F9
:100650000D0290910E029093890080938800809102
:100660000D0290910E02909399008093980084E07F
:1006700090E090938B0080938A0090939B008093EE
:100680009A0078940895A29FB001B39FC001A39FE0
:10069000700D811D1124911DB29F700D811D1124BB
:0806A000911D0895F894FFCFAD
:0206A80001004F
:00000001FF
