:100000000C9494000C9492020C94A3020C94B500EE
:100010000C94B5000C94B5000C94B5000C94B5008C
:100020000C94B5000C94B5000C94B5000C94B5007C
:100030000C94B5000C94B5000C94B5000C94B5006C
:100040000C94B5000C94B5000C94B5000C94B5005C
:100050000C94B5000C9456050C94B5000C94B500A6
:100060000C94B5000C94B5000C94B5000C94B5003C
:100070000C94B5000C94B5000C94B5000C94B5002C
:100080000C94B5000C94B5000C94B5000C94B5001C
:100090000C94B5000C94B5000C94B5000C94B5000C
:1000A0000C94B5000C94B5000C94B5000C94B500FC
:1000B0000C94B5000C94B5000C94B5000C94B500EC
:1000C0000C94B5000C94B5000C94B5000C94B500DC
:1000D0000C94B5000C94B5000C94B5000C94B500CC
:1000E0000C94B5000C94DC000C94D6000C94E60043
:1000F0000C94E0000C94D8000C94D4000C94C5002F
:100100000C94EA000C94C7000C94E4000C94D20008
:100110000C94CE000C94DA000C94E8000C94D000FF
:100120000C94DE000C94E20011241FBECFEFD1E24C
:10013000DEBFCDBF00E00CBF12E0A0E0B2E0E2E124
:10014000FCE000E00BBF02C007900D92AC31B1079C
:10015000D9F722E0ACE1B2E001C01D92A033B207B2
:10016000E1F70E94CC020C94D1050C940000982F6A
:10017000E0EEE80FE63360F50E2E000CFF0B88274B
:10018000ED52FA4F8F4F0C94BA058EEE0895E92F79
:10019000990FFF0BEE52FE4F808108958CE9089570
:1001A0008AE708958EE908958EE808958CE1089510
:1001B0008CEE08958CEF08958EEC08958AE00895F2
:1001C00086EB08958EE108958CE7089580E0089508
:1001D00080E008958EE30895EAE0F1E08081806890
:1001E0008083808180628083808180648083EBE073
:1001F000F1E080818F7D808380818F7B8083089573
:1002000028E030E0EBE0F1E00EC090819F77908332
:1002100090819062908390819F7D908321503109DD
:100220002115310549F0982F91708595992369F32F
:10023000908190689083ECCF0895CF93C82F862F3C
:100240000E9400018C2F0E940001EBE0F1E0808110
:100250008064808380818F7B8083CF9108958F928B
:100260009F92AF92BF92CF92DF92EF92FF920F9345
:100270001F93CF93DF93C62ED72E082F192FC0E0E0
:10028000D0E00F2EFAE08F2E912CA12CB12CF02D66
:10029000EE24E394F12C6C2D7D2D802F912FA50160
:1002A00094010E949805C22ED32E042F152FE62FFD
:1002B000B7010C2E02C0660F771F0A94E2F7609513
:1002C000F0E0EE5FFD4F80810E941D018FE99FE00D
:1002D0000197F1F700C000002196C830D105D9F68A
:1002E000DF91CF911F910F91FF90EF90DF90CF9012
:1002F000BF90AF909F908F900895EF92FF920F93D1
:100300001F93CF93DF938C010C5F1F4FC4E0D0E0AD
:10031000EE24E394F12CF80182918F010E94B70042
:10032000B7010C2E02C0660F771F0A94E2F76095A2
:100330000E941D018FE99FE00197F1F700C00000C6
:100340002196C830D10539F7DF91CF911F910F91D8
:10035000FF90EF900895EF92FF920F931F93CF932A
:10036000DF938C010C5F1F4FC0E0D0E0EE24E394DC
:10037000F12CF80182918F010E94B700B7010C2E79
:1003800002C0660F771F0A94E2F760950E941D0174
:100390008FE99FE00197F1F700C000002196C4307B
:1003A000D10539F7DF91CF911F910F91FF90EF9019
:1003B0000895EF92FF920F931F93CF93DF93C82F6F
:1003C000D92F04E010E0EE24E394F12C9E01ADEC73
:1003D000BCEC0E94C205AC015695479556954795D1
:1003E00056954795CA01880F991F880F991F840F4A
:1003F000951F880F991FAE01481B590B0E94C2051B
:10040000EC01D695C795D695C795D695C795B701F2
:10041000002E02C0660F771F0A94E2F760954E5FC8
:100420005D4FFA0180810E941D018FE99FE00197D5
:10043000F1F700C000000F5F1F4F0830110531F6C3
:10044000DF91CF911F910F91FF90EF900895EF9260
:10045000FF920F931F93CF93DF93C82FD92F00E004
:1004600010E0EE24E394F12C9E01ADECBCEC0E9474
:10047000C205AC01569547955695479556954795B3
:10048000CA01880F991F880F991F840F951F880F25
:10049000991FAE01481B590B0E94C205EC01D6956D
:1004A000C795D695C795D695C795B701002E02C0BA
:1004B000660F771F0A94E2F760954E5F5D4FFA0171
:1004C00080810E941D018FE99FE00197F1F700C034
:1004D00000000F5F1F4F0430110531F6DF91CF91FF
:1004E0001F910F91FF90EF90089552985A9A089596
:1004F000982F26B1282380E021110CC080911C0286
:100500008923882339F0EFE3FCE93197F1F700C044
:10051000000081E0909530911C029323922B9093E0
:100520001C0208958F939F9381E090E090932202A4
:100530008093210282E090E0909301028093000278
:100540009F918F9118958F939F9381E090E0909366
:10055000200280931F0282E090E09093010280933A
:1005600000029F918F9118958AB18C7F8AB98BB1C7
:100570008C7F8BB985E08093690083E08DBB789494
:1005800008958DB383608DBB08958DB38DBB0895A1
:10059000109A08951098089500D000D000D00F92BE
:1005A000CDB7DEB7089A10980E94EC000E94B40202
:1005B0000E9475020E944A050E94C10285E0E2E1A4
:1005C000F2E0DE01119601900D928A95E1F785E047
:1005D000E7E1F2E0DE01169601900D928A95E1F7CF
:1005E00049815A816B817C818D810E94F5034E8106
:1005F0005F81688579858A850E94F503289AEBE0FA
:10060000F1E080818160808304E010E00F2EFBE048
:10061000EF2EF02DFF24F3940F2EF5E2CF2EF02DC8
:10062000D12C20C080912A0290912B0299230CF1A9
:10063000959587950E94D901809128029091290271
:100640009923CCF0959587950E942702809100020E
:10065000909101028230910599F084309105F1F179
:10066000019759F04A9BDECF1093010200930002DC
:10067000D9CF0196DDCF0196E5CF0E94CA02F2CF15
:100680000E94C8024E2D5F2DEE82FF82188660E028
:1006900079858A850E941B05882351F08091280264
:1006A0009091290201969093290280932802DACF33
:1006B0004C2D5D2DC982DA821B8260E07C818D81A8
:1006C0000E941B058111EACF80912A0290912B0292
:1006D000019690932B0280932A02C4CF4A9BC2CFEB
:1006E0001092010210920002BDCF84B1876084B9DC
:1006F000239881E58CBD08958EBD0DB407FEFDCF16
:100700008EB50895EF92FF920F931F93CF93DF93CF
:1007100000D00F920F92CDB7DEB749835A836B8317
:100720007C838D83822F09811A81F801408121E029
:1007300030E0790102C0EE0CFF1C6A95E2F79E2DB5
:10074000909594239083880F8E7780680E947C0315
:1007500080E00E947C03F80190819E2990830F9095
:100760000F900F900F900F90DF91CF911F910F91ED
:10077000FF90EF900895CF92DF92EF92FF920F9348
:10078000CF93DF9300D00F920F92CDB7DEB749839E
:100790005A836B837C838D83E980FA80F701908193
:1007A00041E050E06A0102C0CC0CDD1C6A95E2F722
:1007B0008C2D809589238083822F880F8E770E94CD
:1007C0007C03802F0E947C03F70180818C29808329
:1007D0000F900F900F900F900F90DF91CF910F918E
:1007E000FF90EF90DF90CF900895AF92BF92DF928D
:1007F000EF92FF920F931F93CF93DF9300D00F924E
:100800000F92CDB7DEB749835A83D62E6B837C8394
:100810008D8309811A81EC80FD80F701208181E0C0
:1008200090E002C0880F991F6A95E2F7922F982BEB
:100830009083EAE0F1E0908192609083F8019081EA
:10084000892B80830F2EFBE0AF2EBB24B394F02DB9
:10085000F5018081826080830E947503F5018081AB
:100860008D7F8083808182608083402F512F1A8307
:100870000983DB827E2DFD82EC8227E36D2D8F2D97
:100880000E948203823989F700E726E249815A8172
:100890006B817C818D810E94BB0300E82AE2498143
:1008A0005A816B817C818D810E94BB0309EA2BE216
:1008B00049815A816B817C818D810E94BB0308EE46
:1008C0002DE249815A816B817C818D810E94BB031D
:1008D00003E02CE249815A816B817C818D810E94E9
:1008E000BB0300E425E149815A816B817C818D81C4
:1008F0000E94BB030DE321E149815A816B817C8118
:100900008D810E94BB0324E149815A816B817C81E6
:100910008D810E948203982F9370992379F00F9014
:100920000F900F900F900F90DF91CF911F910F912B
:10093000FF90EF90DF90BF90AF900895082F036075
:1009400024E149815A816B817C818D810E94BB03A6
:10095000E6CF0F931F93CF93DF9300D00F920F92A8
:10096000CDB7DEB749835A836B837C838D8307E0E1
:100970002DE00E94BB0300E021E049815A816B8198
:100980007C818D810E94BB0306E229E049815A8166
:100990006B817C818D810E94BB030CE021E0498149
:1009A0005A816B817C818D810E94BB0307E82DE019
:1009B00049815A816B817C818D810E94BB0318EC37
:1009C00024E049815A816B817C818D810E94820360
:1009D0008073811103C011501111F2CF26E04981BB
:1009E0005A816B817C818D810E9482038B71882367
:1009F00059F080E00F900F900F900F900F90DF91C3
:100A0000CF911F910F9108952AE049815A816B81FE
:100A10007C818D810E948203182F00E82AE04981A1
:100A20005A816B817C818D810E94BB0381E0111111
:100A3000E1CF80E0DFCFCF93DF9300D00F920F9212
:100A4000CDB7DEB749835A836B837C838D830E9445
:100A5000A90481111DC08FE99FE00197F1F700C043
:100A6000000049815A816B817C818D810E94A9049B
:100A700081110EC0EFE9FFE03197F1F700C00000EF
:100A80000F900F900F900F900F90DF91CF910895DE
:100A900081E0F6CF82E084BD83E085BD89EF87BD2C
:100AA000EEE6F0E080818260808308951F921FB699
:100AB0001F9211248F939F93AF93BF9380912C0229
:100AC00090912D02A0912E02B0912F020196A11DAE
:100AD000B11D80932C0290932D02A0932E02B0930F
:100AE0002F02BF91AF919F918F911F901FBE1F90BA
:100AF0001895CF93DF9300D00F92CDB7DEB7F8945F
:100B000080912C0290912D02A0912E02B0912F0283
:100B100089839A83AB83BC83789469817A818B8142
:100B20009C810F900F900F900F90DF91CF910895BF
:100B3000A1E21A2EAA1BBB1BFD010DC0AA1FBB1FE1
:100B4000EE1FFF1FA217B307E407F50720F0A21B53
:100B5000B30BE40BF50B661F771F881F991F1A94C0
:100B600069F760957095809590959B01AC01BD01EA
:100B7000CF010895EE0FFF1F881F8BBF0790F691DE
:100B8000E02D1994A29FB001B39FC001A39F700DE7
:100B9000811D1124911DB29F700D811D1124911D85
:100BA0000895F894FFCFE600E800E800E800E800C8
:100BB000E800E800E800E800E800E800E800E800F5
:100BC000E800E800E800C700C700C700C700C7008A
:100BD000C700C700C700C700C700E800E800E8007A
:100BE000E800E800E800E800C500EA00CE00D00018
:100BF000D200D400E800E800E800E800E800D600F1
:100C0000E800D800DA00DC00E800DE00E000E200E6
:020C1000E400FE
:100C12000100FC60DAF266B6BEE0FEF6EE3E9C7AB9
:0C0C22009E8E25000024000B01000A013A
:00000001FF
