:100000000C9494000C9492020C94AD020C94B500E4
:100010000C94B5000C94B5000C94B5000C94B5008C
:100020000C94B5000C94B5000C94B5000C94B5007C
:100030000C94B5000C94B5000C94B5000C94B5006C
:100040000C94B5000C94B5000C94B5000C94B5005C
:100050000C94B5000C9414060C94B5000C94B500E7
:100060000C94B5000C94B5000C94B5000C94B5003C
:100070000C94B5000C94B5000C94B5000C94B5002C
:100080000C94B5000C94B5000C94B5000C94B5001C
:100090000C94B5000C94B5000C94B5000C94B5000C
:1000A0000C94B5000C94B5000C94B5000C94B500FC
:1000B0000C94B5000C94B5000C94B5000C94B500EC
:1000C0000C94B5000C94B5000C94B5000C94B500DC
:1000D0000C94B5000C94B5000C94CE060C94B500AD
:1000E0000C94B5000C94DC000C94D6000C94E60043
:1000F0000C94E0000C94D8000C94D4000C94C5002F
:100100000C94EA000C94C7000C94E4000C94D20008
:100110000C94CE000C94DA000C94E8000C94D000FF
:100120000C94DE000C94E20011241FBECFEFD1E24C
:10013000DEBFCDBF00E00CBF12E0A0E0B2E0E2E61F
:10014000F5E100E00BBF02C007900D92A232B107AB
:10015000D9F722E0A2E2B2E001C01D92A138B207B5
:10016000E1F70E94DC020C94790A0C940000982FAD
:10017000E0EEE80FE63360F50E2E000CFF0B88274B
:10018000E558F54F8F4F0C945B078EEE0895E92FDD
:10019000990FFF0BEE52FE4F808108958CE9089570
:1001A0008AE708958EE908958EE808958CE1089510
:1001B0008CEE08958CEF08958EEC08958AE00895F2
:1001C00086EB08958EE108958CE7089580E0089508
:1001D00080E008958EE30895EAE0F1E08081806890
:1001E0008083808180628083808180648083EBE073
:1001F000F1E080818F7D808380818F7B8083089573
:1002000028E030E0EBE0F1E00EC090819F77908332
:1002100090819062908390819F7D908321503109DD
:100220002115310549F0982F91708595992369F32F
:10023000908190689083ECCF0895CF93C82F862F3C
:100240000E9400018C2F0E940001EBE0F1E0808110
:100250008064808380818F7B8083CF9108958F928B
:100260009F92AF92BF92CF92DF92EF92FF920F9345
:100270001F93CF93DF93C62ED72E082F192FC0E0E0
:10028000D0E00F2EFAE08F2E912CA12CB12CF02D66
:10029000EE24E394F12C6C2D7D2D802F912FA50160
:1002A00094010E943907C22ED32E042F152FE62F5A
:1002B000B7010C2E02C0660F771F0A94E2F7609513
:1002C000F0E0EE5FFD4F80810E941D018FE99FE00D
:1002D0000197F1F700C000002196C830D105D9F68A
:1002E000DF91CF911F910F91FF90EF90DF90CF9012
:1002F000BF90AF909F908F900895EF92FF920F93D1
:100300001F93CF93DF938C010C5F1F4FC4E0D0E0AD
:10031000EE24E394F12CF80182918F010E94B70042
:10032000B7010C2E02C0660F771F0A94E2F76095A2
:100330000E941D018FE99FE00197F1F700C00000C6
:100340002196C830D10539F7DF91CF911F910F91D8
:10035000FF90EF900895EF92FF920F931F93CF932A
:10036000DF938C010C5F1F4FC0E0D0E0EE24E394DC
:10037000F12CF80182918F010E94B700B7010C2E79
:1003800002C0660F771F0A94E2F760950E941D0174
:100390008FE99FE00197F1F700C000002196C4307B
:1003A000D10539F7DF91CF911F910F91FF90EF9019
:1003B0000895EF92FF920F931F93CF93DF93C82F6F
:1003C000D92F04E010E0EE24E394F12C9E01ADEC73
:1003D000BCEC0E946307AC0156954795569547952E
:1003E00056954795CA01880F991F880F991F840F4A
:1003F000951F880F991FAE01481B590B0E94630778
:10040000EC01D695C795D695C795D695C795B701F2
:10041000002E02C0660F771F0A94E2F760954E5FC8
:100420005D4FFA0180810E941D018FE99FE00197D5
:10043000F1F700C000000F5F1F4F0830110531F6C3
:10044000DF91CF911F910F91FF90EF900895EF9260
:10045000FF920F931F93CF93DF93C82FD92F00E004
:1004600010E0EE24E394F12C9E01ADECBCEC0E9474
:100470006307AC0156954795569547955695479510
:10048000CA01880F991F880F991F840F951F880F25
:10049000991FAE01481B590B0E946307EC01D695CA
:1004A000C795D695C795D695C795B701002E02C0BA
:1004B000660F771F0A94E2F760954E5F5D4FFA0171
:1004C00080810E941D018FE99FE00197F1F700C034
:1004D00000000F5F1F4F0430110531F6DF91CF91FF
:1004E0001F910F91FF90EF90089552985A9A089596
:1004F000982F26B1282380E021110CC08091220280
:100500008923882339F0EFE3FCE93197F1F700C044
:10051000000081E09095309122029323922B9093DA
:10052000220208958F938FB78F939F9381E090E07D
:1005300090932802809327028FE39CE90197F1F7BB
:1005400000C0000082E090E09093010280930002DE
:100550009F918F918FBF8F9118958F938FB78F93A6
:100560009F9381E090E090932602809325028FE391
:100570009CE90197F1F700C0000082E090E09093C1
:100580000102809300029F918F918FBF8F911895E8
:100590008AB18C7F8AB98BB18C7F8BB98FE08093C5
:1005A000690083E08DBB789408958DB383608DBB23
:1005B00008958DB38DBB0895CDB7DEB72E970FB6D6
:1005C000F894DEBF0FBECDBF0E94EC000E94C802AF
:1005D0000E9456060E9475020E9408060E94D502DB
:1005E00085E0E2E1F2E0DE01119601900D928A953C
:1005F000E1F785E0E7E1F2E0DE01169601900D9269
:100600008A95E1F749815A816B817C818D810E94B5
:10061000B3044E815F81688579858A850E94B30421
:1006200004E010E0EE24E394F12C0F2EF3E0BF2E53
:10063000F02D6894CC24C1F8DD24D39419C004971C
:10064000B9F40E9420074A9B13C010920102109235
:1006500000020EC080913002909131020E94D901B7
:1006600080912E0290912F020E9427020E9416076D
:100670004A9904C010930102009300028091300255
:10068000909131020E94D90180912E0290912F0207
:100690000E9427028091000290910102833091050F
:1006A00009F4CFC060F681309105A1F2029701F7FD
:1006B00080912902823009F499C008F04DC0882346
:1006C00009F472C00E9437066B877C878D879E87EE
:1006D00080912A0290912B02A0912C02B0912D02C0
:1006E0002B853C854D855E85281B390B4A0B5B0BA2
:1006F000DA01C901883E9340A105B10508F4B8CFDD
:100700004E815F81688579858A850E946705882387
:1007100009F459C080912E0290912F020196909376
:100720002F0280932E0280913002909131020E941C
:10073000D90180912E0290912F020E9427020E94DF
:10074000370660932A0270932B0280932C029093B9
:100750002D02C09229028CCF833009F089CF0E94EC
:1007600037066B877C878D879E8780912A029091C0
:100770002B02A0912C02B0912D022B853C854D853A
:100780005E85281B390B4A0B5B0BDA01C901843FDC
:100790009140A105B10508F46BCF10922902F092A7
:1007A0000102E092000264CF0E9420070E943706F7
:1007B00060932A0270932B0280932C0290932D0257
:1007C000D092290255CF49815A816B817C818D81DC
:1007D0000E94670581119ECF809130029091310275
:1007E000019690933102809330029DCF0E9437068C
:1007F0006B877C878D879E8780912A0290912B0240
:10080000A0912C02B0912D022B853C854D855E85F3
:10081000281B390B4A0B5B0BDA01C901883E934058
:10082000A105B10508F424CF0E94370660932A027F
:1008300070932B0280932C0290932D02B092290288
:1008400017CF0E942A0780913D0290913E02892B8A
:1008500009F40ECFF0920102E092000210923E02E3
:1008600010923D0205CF84B1876084B9239881E559
:100870008CBD08958EBD0DB407FEFDCF8EB50895D5
:10088000EF92FF920F931F93CF93DF9300D00F92BD
:100890000F92CDB7DEB749835A836B837C838D83F8
:1008A000822F09811A81F801408121E030E079012D
:1008B00002C0EE0CFF1C6A95E2F79E2D90959423E2
:1008C0009083880F8E7780680E943A0480E00E94AF
:1008D0003A04F80190819E2990830F900F900F9019
:1008E0000F900F90DF91CF911F910F91FF90EF909C
:1008F0000895CF92DF92EF92FF920F93CF93DF9301
:1009000000D00F920F92CDB7DEB749835A836B8325
:100910007C838D83E980FA80F701908141E050E08B
:100920006A0102C0CC0CDD1C6A95E2F78C2D809523
:1009300089238083822F880F8E770E943A04802F2C
:100940000E943A04F70180818C2980830F900F90D8
:100950000F900F900F90DF91CF910F91FF90EF903C
:10096000DF90CF900895AF92BF92DF92EF92FF9207
:100970000F931F93CF93DF9300D00F920F92CDB7B9
:10098000DEB749835A83D62E6B837C838D8309819E
:100990001A81EC80FD80F701208181E090E002C0A7
:1009A000880F991F6A95E2F7922F982B9083EAE0BF
:1009B000F1E0908192609083F8019081892B80838F
:1009C0000F2EFBE0AF2EBB24B394F02DF5018081F8
:1009D000826080830E943304F50180818D7F808353
:1009E000808182608083402F512F1A830983DB82AC
:1009F0007E2DFD82EC8227E36D2D8F2D0E94400419
:100A0000823989F700E726E249815A816B817C812E
:100A10008D810E94790400E82AE249815A816B8124
:100A20007C818D810E94790409EA2BE249815A81F7
:100A30006B817C818D810E94790408EE2DE24981D1
:100A40005A816B817C818D810E94790403E02CE2C4
:100A500049815A816B817C818D810E94790400E4F7
:100A600025E149815A816B817C818D810E947904C5
:100A70000DE321E149815A816B817C818D810E9446
:100A8000790424E149815A816B817C818D810E94A6
:100A90004004982F9370992379F00F900F900F9046
:100AA0000F900F90DF91CF911F910F91FF90EF90DA
:100AB000DF90BF90AF900895082F036024E1498133
:100AC0005A816B817C818D810E947904E6CF0F93DE
:100AD0001F93CF93DF9300D00F920F92CDB7DEB765
:100AE00049835A836B837C838D8307E02DE00E94CA
:100AF000790400E021E049815A816B817C818D81FC
:100B00000E94790406E229E049815A816B817C8147
:100B10008D810E9479040CE021E049815A816B812A
:100B20007C818D810E94790407E82DE049815A81FA
:100B30006B817C818D810E94790418EC24E04981CD
:100B40005A816B817C818D810E9440048073811168
:100B500003C011501111F2CF26E049815A816B81F7
:100B60007C818D810E9440048B71882359F080E044
:100B70000F900F900F900F900F90DF91CF911F91DA
:100B80000F9108952AE049815A816B817C818D8182
:100B90000E944004182F00E82AE049815A816B81A5
:100BA0007C818D810E94790481E01111E1CF80E088
:100BB000DFCFCF93DF9300D00F920F92CDB7DEB788
:100BC00049835A836B837C838D830E9467058111DF
:100BD0001DC08FE99FE00197F1F700C00000498137
:100BE0005A816B817C818D810E94670581110EC0C5
:100BF000EFE9FFE03197F1F700C000000F900F9090
:100C00000F900F900F90DF91CF91089581E0F6CF74
:100C100082E084BD83E085BD89EF87BDEEE6F0E02C
:100C200080818260808308951F921FB61F921124D5
:100C30008F939F93AF93BF93809132029091330231
:100C4000A0913402B09135020196A11DB11D80938F
:100C5000320290933302A0933402B0933502BF91D5
:100C6000AF919F918F911F901FBE1F901895CF93AA
:100C7000DF9300D00F92CDB7DEB7F89480913202A7
:100C800090913302A0913402B091350289839A8306
:100C9000AB83BC83789469817A818B819C810F902E
:100CA0000F900F900F90DF91CF9108951092350122
:100CB00087E68093340188E98093310186E0809350
:100CC000320178940895E0E3F1E0908195FFFDCF43
:100CD000809336010895CF93DF93C82FD92F888151
:100CE000882331F021960E94630689918111FBCF00
:100CF000DF91CF9108950F931F93CF93DF9300D08F
:100D0000CDB7DEB71F928F938CE192E09F938F93C4
:100D10001F9283E08F938E010F5F1F4F1F930F93DE
:100D20000E947207C8010E946B060FB6F894DEBFDE
:100D30000FBECDBF0F900F900F90DF91CF911F91FD
:100D40000F9108952091400280913F0230E0205C95
:100D50003F4F281B3109C9018F73907833230CF062
:100D600008950197806C9F6F0196FACF9091400291
:100D700080913F02981781F0E0913F02F0E0EF5B35
:100D8000FD4F808120913F0230E02F5F3F4F2F7356
:100D9000307820933F02089580E008951F921FB697
:100DA0001F9211248F938BB78F939F93EF93FF9391
:100DB000E091380281E08E0F80933802F0E080915C
:100DC0003601E75CFD4F808380913802843051F01A
:100DD000FF91EF919F918F918BBF8F911F901FBEBD
:100DE0001F901895E9E3F2E08081809337028181BA
:100DF000809336021092380280913702813041F799
:100E000081E090E090933E0280933D02E1CFCF934A
:100E1000C62F0E9463068C2F0E9463068FEF0E94EC
:100E200063068FEF0E946306CF91089560E881E02A
:100E30000E940707089560E081E00E940707089577
:100E40006FE781E00E940707089561E082E00E9459
:100E50000707089562E082E00E940707089561E0B5
:100E600083E00E940707089562E083E00E9407077D
:100E70000895A1E21A2EAA1BBB1BFD010DC0AA1FDB
:100E8000BB1FEE1FFF1FA217B307E407F50720F0F3
:100E9000A21BB30BE40BF50B661F771F881F991F6E
:100EA0001A9469F760957095809590959B01AC01B7
:100EB000BD01CF010895EE0FFF1F881F8BBF079064
:100EC000F691E02D1994A29FB001B39FC001A39F9A
:100ED000700D811D1124911DB29F700D811D112473
:100EE000911D08950F931F93CF93DF93CDB7DEB776
:100EF0002E970FB6F894DEBF0FBECDBF0E891F89A7
:100F000086E08C831A830983888D998D813020E84F
:100F1000920710F080E090E801979E838D83AE01E8
:100F2000445E5F4F6A8D7B8DCE0101960E94B107B2
:100F30004D815E8157FD0AC02F81388542175307C6
:100F40000CF49A01020F131FF80110822E960FB6AF
:100F5000F894DEBF0FBECDBFDF91CF911F910F91EF
:100F600008955F926F927F928F929F92AF92BF92FD
:100F7000CF92DF92EF92FF920F931F93CF93DF9365
:100F8000CDB7DEB72F970FB6F894DEBF0FBECDBF3B
:100F90006C017B018A01DC0117961C921E92169748
:100FA00013968C9181FFFEC12AE0522EF6019381A7
:100FB000F70193FD859193FF81917F01882309F4C7
:100FC00073C0853239F493FD859193FF81917F0140
:100FD000853229F4B60190E00E94EB09E7CF912C0D
:100FE000612C712CFFE1F71508F446C08B32C9F172
:100FF000F8F48032C1F1833209F43BC0833609F43E
:101000009CC0833709F4A5C0833509F0C8C0F80136
:10101000A190B1908F01692D70E076FC02C06FEF56
:101020007FEFC5010E94D5094C01689477F871C023
:101030008D32E1F0803351F020ED280F2A3048F155
:101040008E3209F04BC0689476F802C0689470F84C
:10105000F70193FD859193FF81917F018111C2CFAB
:1010600045C0689471F8689472F8F2CF689473F888
:10107000EFCF689474F8ECCF77FC38C020ED280FE0
:101080002A3070F476FE05C0959C200D1124922E16
:10109000DFCF659C200D1124622E689475F8D8CF9F
:1010A0008E32E1F476FECFCFD60116968D919C91CB
:1010B0002F960FB6F894DEBF0FBECDBFDF91CF9154
:1010C0001F910F91FF90EF90DF90CF90BF90AF9066
:1010D0009F908F907F906F905F9008958C3619F459
:1010E000689477F8B5CF883609F4B2CF982F9F7DF2
:1010F0009554933008F082CF0C5F1F4F8FE38983A4
:1011000088248394912CAE014F5F5F4F5A01E8947D
:1011100077F873FC05C0862D90E08816990640F19B
:101120008114910461F5662009F440CFB60180E294
:1011300090E00E94EB096A94F6CFD8018C918983E4
:101140000E5F1F4F88248394912CFE0131965F011E
:10115000DECFD801AD90BD908D01692D70E076FC99
:1011600002C06FEF7FEFC5010E94E0094C01CFCFB5
:10117000B60180E290E00E94EB096A94CCCFF501C1
:1011800077FC859177FE81915F01B60190E00E9426
:10119000EB0961106A94F1E08F1A9108C1CF84368F
:1011A00019F0893609F081C0F80177FE77C06191A6
:1011B0007191819191918F01272D2F76822E97FF2A
:1011C00009C090958095709561957F4F8F4F9F4F87
:1011D000689487F82AE030E0AE014F5F5F4F5A0114
:1011E0000E941B0A8A19A82EBA2C782C86FE0CC0E5
:1011F000E89470F8A91440F484FE05C082FC03C092
:10120000782D7E7E772EB92C74FEA5C0FE01EA0DE6
:10121000F11D8081803309F097C0872D897E782E5B
:1012200073FC0EC070FEA6C09A2CB61418F4960C6F
:101230009B18B62C862D8B196B1408F480E0B80E21
:10124000B61408F099C06B1874FE98C0B60180E31C
:1012500090E00E94EB0972FE09C088E590E071FC05
:1012600002C088E790E0B6010E94EB09A91408F4D7
:1012700092C0AA94B12C9FEFA91AB90ADE01119667
:101280004D01AA0EBB1EF50182915F01B60190E0EF
:101290000E94EB098A149B04B1F745CF61917191CB
:1012A000072E000C880B990B86CF872CE89484F8C6
:1012B0002AE030E0853769F0572D597F852E803739
:1012C00071F118F5883571F18F3609F0EDCE28E00F
:1012D00030E0F80187FE2EC081919191A191B191EA
:1012E0008C879D87AE87BF878F01BE016F5F7F4F61
:1012F0005B01AB016C857D858E859F850E941B0AF5
:101300008A19A82EE89487F86FCF883709F0CCCED9
:1013100084FE02C0689482F820E130E0DACF68945D
:1013200084F8F6CF74FE03C0652F6660862E20E138
:1013300032E0CFCF81919191AC0160E070E04C87B9
:101340005D876E877F87D0CF72FC02C0B39468CF71
:10135000B394B39465CF872D8678882309F460CF42
:10136000F5CFB60180E290E00E94EB0983948614E9
:10137000C0F360CF8B2CFBCF612C66CF872D867896
:10138000882309F473CF8BE271FE80E277FC8DE253
:10139000B60190E069CFB60180E390E00E94EB09CE
:1013A0009A9464CF8FEF9FEF83CEFC01059061503C
:1013B00070400110D8F7809590958E0F9F1F08956B
:1013C000FC016150704001900110D8F78095909514
:1013D0008E0F9F1F08950F931F93CF93DF93182FA6
:1013E000092FEB018B8181FD09C01FEF0FEF812FCA
:1013F000902FDF91CF911F910F91089582FF14C01C
:101400002E813F818C819D81281739073CF4E8812A
:10141000F981CF0101969983888310838E819F8102
:1014200001969F838E83E3CFE885F985812F1995F7
:10143000892BA1F3DACFFA01AA27283051F1203104
:1014400081F1E8946F936E7F6E5F7F4F8F4F9F4F58
:10145000AF4FB1E03ED0B4E03CD0670F781F891F9A
:101460009A1FA11D680F791F8A1F911DA11D6A0F68
:10147000711D811D911DA11D20D009F468943F911B
:101480002AE0269F11243019305D3193DEF6CF011A
:101490000895462F4770405D4193B3E00FD0C9F7E0
:1014A000F6CF462F4F70405D4A3318F0495D31FD4D
:1014B0004052419302D0A9F7EACFB4E0A6959795A0
:1014C000879577956795BA95C9F700976105710576
:1014D00008959B01AC010A2E0694579547953795C0
:1014E0002795BA95C9F7620F731F841F951FA01D1A
:1014F0000895F894FFCFE600E800E800E800E8006F
:10150000E800E800E800E800E800E800E800E8009B
:10151000E800E800E800C700C700C700C700C70030
:10152000C700C700C700C700C700E800E800E80020
:10153000E800E800E800E800C500EA00CE00D000BE
:10154000D200D400E800E800E800E800E800D60097
:10155000E800D800DA00DC00E800DE00E000E2008D
:02156000E400A5
:101562000100FC60DAF266B6BEE0FEF6EE3E9C7A60
:101572009E8E25000024000B01000A0125303258FE
:02158200000067
:00000001FF
