:100000000C9494000C9492020C94AD020C94B500E4
:100010000C94B5000C94B5000C94B5000C94B5008C
:100020000C94B5000C94B5000C94B5000C94B5007C
:100030000C94B5000C94B5000C94B5000C94B5006C
:100040000C94B5000C94B5000C94B5000C94B5005C
:100050000C94B5000C94B6050C94B5000C94B50046
:100060000C94B5000C94B5000C94B5000C94B5003C
:100070000C94B5000C94B5000C94B5000C94B5002C
:100080000C94B5000C94B5000C94B5000C94B5001C
:100090000C94B5000C94B5000C94B5000C94B5000C
:1000A0000C94B5000C94B5000C94B5000C94B500FC
:1000B0000C94B5000C94B5000C94B5000C94BF04DE
:1000C0000C94D3040C94B5000C94A0040C94B500CB
:1000D0000C94B5000C94B5000C9470060C94B5000B
:1000E0000C94B5000C94DC000C94D6000C94E60043
:1000F0000C94E0000C94D8000C94D4000C94C5002F
:100100000C94EA000C94C7000C94E4000C94D20008
:100110000C94CE000C94DA000C94E8000C94D000FF
:100120000C94DE000C94E20011241FBECFEFD1E24C
:10013000DEBFCDBF00E00CBF12E0A0E0B2E0E4ED16
:10014000F7E100E00BBF02C007900D92A831B107A4
:10015000D9F722E0A8E1B2E001C01D92A737B207AB
:10016000E1F70E94DC020C94B20B0C940000982F73
:10017000E0EEE80FE63360F50E2E000CFF0B88274B
:10018000EC54F44F8F4F0C94FD068EEE0895E92F3A
:10019000990FFF0BEE52FE4F808108958CE9089570
:1001A0008AE708958EE908958EE808958CE1089510
:1001B0008CEE08958CEF08958EEC08958AE00895F2
:1001C00086EB08958EE108958CE7089580E0089508
:1001D00080E008958EE30895EAE0F1E08081806890
:1001E0008083808180628083808180648083EBE073
:1001F000F1E080818F7D808380818F7B8083089573
:1002000028E030E0EBE0F1E00EC090819F77908332
:1002100090819062908390819F7D908321503109DD
:100220002115310549F0982F91708595992369F32F
:10023000908190689083ECCF0895CF93C82F862F3C
:100240000E9400018C2F0E940001EBE0F1E0808110
:100250008064808380818F7B8083CF9108958F928B
:100260009F92AF92BF92CF92DF92EF92FF920F9345
:100270001F93CF93DF93C62ED72E082F192FC0E0E0
:10028000D0E00F2EFAE08F2E912CA12CB12CF02D66
:10029000EE24E394F12C6C2D7D2D802F912FA50160
:1002A00094010E94DB06C22ED32E042F152FE62FB9
:1002B000B7010C2E02C0660F771F0A94E2F7609513
:1002C000F0E0EE5FFD4F80810E941D018FE99FE00D
:1002D0000197F1F700C000002196C830D105D9F68A
:1002E000DF91CF911F910F91FF90EF90DF90CF9012
:1002F000BF90AF909F908F900895EF92FF920F93D1
:100300001F93CF93DF938C010C5F1F4FC4E0D0E0AD
:10031000EE24E394F12CF80182918F010E94B70042
:10032000B7010C2E02C0660F771F0A94E2F76095A2
:100330000E941D018FE99FE00197F1F700C00000C6
:100340002196C830D10539F7DF91CF911F910F91D8
:10035000FF90EF900895EF92FF920F931F93CF932A
:10036000DF938C010C5F1F4FC0E0D0E0EE24E394DC
:10037000F12CF80182918F010E94B700B7010C2E79
:1003800002C0660F771F0A94E2F760950E941D0174
:100390008FE99FE00197F1F700C000002196C4307B
:1003A000D10539F7DF91CF911F910F91FF90EF9019
:1003B0000895EF92FF920F931F93CF93DF93C82F6F
:1003C000D92F04E010E0EE24E394F12C9E01ADEC73
:1003D000BCEC0E940507AC0156954795569547958C
:1003E00056954795CA01880F991F880F991F840F4A
:1003F000951F880F991FAE01481B590B0E940507D6
:10040000EC01D695C795D695C795D695C795B701F2
:10041000002E02C0660F771F0A94E2F760954E5FC8
:100420005D4FFA0180810E941D018FE99FE00197D5
:10043000F1F700C000000F5F1F4F0830110531F6C3
:10044000DF91CF911F910F91FF90EF900895EF9260
:10045000FF920F931F93CF93DF93C82FD92F00E004
:1004600010E0EE24E394F12C9E01ADECBCEC0E9474
:100470000507AC015695479556954795569547956E
:10048000CA01880F991F880F991F840F951F880F25
:10049000991FAE01481B590B0E940507EC01D69528
:1004A000C795D695C795D695C795B701002E02C0BA
:1004B000660F771F0A94E2F760954E5F5D4FFA0171
:1004C00080810E941D018FE99FE00197F1F700C034
:1004D00000000F5F1F4F0430110531F6DF91CF91FF
:1004E0001F910F91FF90EF90089552985A9A089596
:1004F000982F26B1282380E021110CC0809118028A
:100500008923882339F0EFE3FCE93197F1F700C044
:10051000000081E09095309118029323922B9093E4
:10052000180208958F938FB78F939F9381E090E087
:1005300090931E0280931D028FE39CE90197F1F7CF
:1005400000C0000082E090E09093010280930002DE
:100550009F918F918FBF8F9118958F938FB78F93A6
:100560009F9381E090E090931C0280931B028FE3A5
:100570009CE90197F1F700C0000082E090E09093C1
:100580000102809300029F918F918FBF8F911895E8
:100590008AB18C7F8AB98BB18C7F8BB98AE08093CA
:1005A000690083E08DBB789408958DB383608DBB23
:1005B00008958DB38DBB089500D00F92CDB7DEB7EF
:1005C0000E94EC000E9429040E949D050E94E704FD
:1005D0000E94C8020E94F8050E9475020E94AA05A6
:1005E0000F2EF3E0FF2EF02D02E011E01FC0049764
:1005F000E9F40E94C2064A9B19C0109201021092AF
:10060000000214C08CE90E94090584E60E9453058B
:1006100080912602909127020E94D90180912402A4
:10062000909125020E9427020E94B806809126021E
:10063000909127020E94D901809124029091250275
:100640000E9427028091000290910102833091055F
:1006500009F4D3C060F681309105A1F2029731F719
:1006600080911F02823009F49DC008F04EC088239B
:1006700009F477C00E94D90569837A838B839C83B0
:100680008091200290912102A0912202B091230238
:1006900029813A814B815C81281B390B4A0B5B0B0A
:1006A000DA01C901803D9740A105B10508F4BECF2C
:1006B0000E946904892B09F46BC0809124029091F7
:1006C00025020196909325028093240280912602B0
:1006D000909127020E94D9018091240290912502D5
:1006E0000E9427028CE90E94090584E60E945305B6
:1006F0000E94D90560932002709321028093220208
:100700009093230200931F0291CF833009F08ECF84
:100710000E94D90569837A838B839C838091200210
:1007200090912102A0912202B091230229813A8165
:100730004B815C81281B390B4A0B5B0BDA01C90129
:10074000843F9140A105B10508F470CF0E94D50205
:1007500010921F0241E050E05093010240930002CA
:1007600065CF0E94C2060E94D90284E60E94090554
:100770008CE90E9453050E94D90560932002709372
:100780002102809322029093230210931F024ECFE6
:1007900080912602909127020196909327028093E0
:1007A000260294CF0E94D90569837A838B839C8328
:1007B0008091200290912102A0912202B091230207
:1007C00029813A814B815C81281B390B4A0B5B0BD9
:1007D000DA01C901803D9740A105B10508F426CF93
:1007E0000E94D90560932002709321028093220217
:1007F00090932302F0921F0219CF0E94CC068091A1
:10080000330290913402892B09F410CF81E090E0FB
:1008100090930102809300021092340210923302EE
:1008200005CF2898880F8E7780680E94A40580E005
:100830000E94A405289A0895CF93C62F2898880F60
:100840008E770E94A4058C2F0E94A405289ACF9130
:100850000895209AE1E0F1E0808181608083289A08
:10086000E2E0F1E08081816080830E949D056FE07D
:1008700081E00E941C042FEF80E792E0215080402D
:100880009040E1F700C0000060E88AE20E941C048A
:1008900069EA8BE20E941C0468EE8DE20E941C044F
:1008A00063E08CE20E941C0460E485E10E941C0469
:1008B0006DE381E10E941C0484E10E941104982FE1
:1008C000937091110895682F636084E10E941C0465
:1008D000F9CFCF9367E08DE00E941C0460E081E0D7
:1008E0000E941C0466E289E00E941C046CE081E026
:1008F0000E941C0467E88DE00E941C04C8EC84E0A0
:100900000E9411048073811109C08FE99FE0019753
:10091000F1F700C00000C150C111F1CF86E00E9484
:1009200011048B71882319F080E0CF9108958AE03B
:100930000E941104982F81E09111F7CF80E0F5CF4C
:100940008F938FB78F938BB78F939F93EF93FF9373
:1009500084E294E69093250180932401EBE0F1E09A
:10096000808188608083808180618083FF91EF91A6
:100970009F918F918BBF8F918FBF8F9118958F9380
:100980008FB78F938BB78F93EF93FF93EBE0F1E0EB
:100990008081877F8083FF91EF918F918BBF8F91B3
:1009A0008FBF8F9118958F938FB78F938BB78F933E
:1009B000EF93FF93EBE0F1E080818F7E8083FF91E6
:1009C000EF918F918BBF8F918FBF8F911895EAE038
:1009D000F1E08081886080838081806180831092D3
:1009E000200182E08093210187E08093730084E2FC
:1009F00094E690932501809324018CED9FE69093DB
:100A000029018093280190932B0180932A017894E7
:100A10000895CF93DF9300D00F92CDB7DEB794E661
:100A2000980F993CC8F5282F880F330B440B550BB2
:100A300029833A834B835C83CA01B9010E94B207C0
:100A400020E030E040E251E469837A838B839C8329
:100A500069817A818B819C810E943E0820E038EB7D
:100A60004FED56E469837A838B839C8369817A8115
:100A70008B819C810E94150769837A838B839C8379
:100A800069817A818B819C810E948107462F572F33
:100A900050932901409328010F900F900F900F90D1
:100AA000DF91CF910895CF93DF9300D00F92CDB710
:100AB000DEB794E6980F993CC8F5282F880F330BC2
:100AC000440B550B29833A834B835C83CA01B901DC
:100AD0000E94B20720E030E040E251E469837A836B
:100AE0008B839C8369817A818B819C810E943E08E3
:100AF00020E038EB4FED56E469837A838B839C8347
:100B000069817A818B819C810E94150769837A8330
:100B10008B839C8369817A818B819C810E94810770
:100B2000462F572F50932B0140932A010F900F907F
:100B30000F900F90DF91CF91089584B1876084B9B1
:100B4000239881E58CBD08958EBD0DB407FEFDCFC1
:100B50008EB5089582E084BD83E085BD89EF87BDB1
:100B6000EEE6F0E080818260808308951F921FB6D8
:100B70001F9211248F939F93AF93BF93809128026C
:100B800090912902A0912A02B0912B020196A11DF9
:100B9000B11D8093280290932902A0932A02B0935A
:100BA0002B02BF91AF919F918F911F901FBE1F90FD
:100BB0001895CF93DF9300D00F92CDB7DEB7F8949E
:100BC0008091280290912902A0912A02B0912B02D3
:100BD00089839A83AB83BC83789469817A818B8182
:100BE0009C810F900F900F900F90DF91CF910895FF
:100BF0001092350187E68093340188E980933101B2
:100C000086E08093320178940895E0E3F1E09081EA
:100C100095FFFDCF809336010895CF93DF93C82FC2
:100C2000D92F8881882331F021960E940506899169
:100C30008111FBCFDF91CF9108950F931F93CF9335
:100C4000DF9300D0CDB7DEB71F928F9382E192E0A1
:100C50009F938F931F9283E08F938E010F5F1F4F9F
:100C60001F930F930E94AB08C8010E940D060FB698
:100C7000F894DEBF0FBECDBF0F900F900F90DF91A5
:100C8000CF911F910F9108952091360280913502E6
:100C900030E0205C3F4F281B3109C9018F739078E9
:100CA00033230CF008950197806C9F6F0196FACF63
:100CB0009091360280913502981781F0E0913502CB
:100CC000F0E0E95CFD4F80812091350230E02F5F3C
:100CD0003F4F2F73307820933502089580E00895B8
:100CE0001F921FB61F9211248F938BB78F939F93E0
:100CF000EF93FF93E0912E0281E08E0F80932E02FE
:100D0000F0E080913601E15DFD4F808380912E02FD
:100D1000843051F0FF91EF919F918F918BBF8F9114
:100D20001F901FBE1F901895EFE2F2E08081809324
:100D30002D02818180932C0210922E0280912D022F
:100D4000813041F781E090E0909334028093330248
:100D5000E1CFCF93C62F0E9405068C2F0E94050677
:100D60008FEF0E9405068FEF0E940506CF91089530
:100D700060E881E00E94A906089560E081E00E9499
:100D8000A90608956FE781E00E94A906089561E031
:100D900082E00E94A906089562E082E00E94A9060E
:100DA000089561E083E00E94A906089562E083E06F
:100DB0000E94A9060895A1E21A2EAA1BBB1BFD01E1
:100DC0000DC0AA1FBB1FEE1FFF1FA217B307E4072A
:100DD000F50720F0A21BB30BE40BF50B661F771F82
:100DE000881F991F1A9469F7609570958095909562
:100DF0009B01AC01BD01CF010895EE0FFF1F881FBD
:100E00008BBF0790F691E02D1994A29FB001B39F7C
:100E1000C001A39F700D811D1124911DB29F700D03
:100E2000811D1124911D08955058BB27AA270E94A7
:100E30002C070C9404080E94F60738F00E94FD0766
:100E400020F039F49F3F19F426F40C94F3070EF4C4
:100E5000E095E7FB0C94ED07E92F0E94150858F385
:100E6000BA17620773078407950720F079F4A6F58F
:100E70000C9437080EF4E0950B2EBA2FA02D0B0121
:100E8000B90190010C01CA01A0011124FF27591BCF
:100E900099F0593F50F4503E68F11A16F040A22FD5
:100EA000232F342F4427585FF3CF46953795279546
:100EB000A795F0405395C9F77EF41F16BA0B620B45
:100EC000730B840BBAF09150A1F0FF0FBB1F661F8C
:100ED000771F881FC2F70EC0BA0F621F731F841FCF
:100EE00048F4879577956795B795F7959E3F08F0F5
:100EF000B0CF9395880F08F09927EE0F97958795B7
:100F000008950E941D0888F09F5798F0B92F9927DF
:100F1000B751B0F0E1F0660F771F881F991F1AF0E4
:100F2000BA95C9F714C0B13091F00E943708B1E00A
:100F300008950C943708672F782F8827B85F39F009
:100F4000B93FCCF3869577956795B395D9F73EF47D
:100F500090958095709561957F4F8F4F9F4F089525
:100F6000E89409C097FB3EF4909580957095619543
:100F70007F4F8F4F9F4F9923A9F0F92F96E9BB27F9
:100F80009395F695879577956795B795F111F8CF75
:100F9000FAF4BB0F11F460FF1BC06F5F7F4F8F4FE0
:100FA0009F4F16C0882311F096E911C0772321F0D6
:100FB0009EE8872F762F05C0662371F096E8862F6E
:100FC00070E060E02AF09A95660F771F881FDAF7C5
:100FD000880F9695879597F9089597F99F6780E808
:100FE00070E060E008959FEF80EC089500240A947B
:100FF0001616170618060906089500240A941216F4
:101000001306140605060895092E0394000C11F426
:10101000882352F0BB0F40F4BF2B11F460FF04C0D3
:101020006F5F7F4F8F4F9F4F089557FD9058440F2C
:10103000551F59F05F3F71F04795880F97FB991F37
:1010400061F09F3F79F087950895121613061406F4
:10105000551FF2CF4695F1DF08C016161706180681
:10106000991FF1CF86957105610508940895E8945C
:10107000BB2766277727CB0197F908950E9451086F
:101080000C9404080E94F60738F00E94FD0720F037
:10109000952311F00C94ED070C94F30711240C9494
:1010A00038080E94150870F3959FC1F3950F50E022
:1010B000551F629FF001729FBB27F00DB11D639F0A
:1010C000AA27F00DB11DAA1F649F6627B00DA11DB0
:1010D000661F829F2227B00DA11D621F739FB00D56
:1010E000A11D621F839FA00D611D221F749F3327C6
:1010F000A00D611D231F849F600D211D822F762F5F
:101100006A2F11249F5750409AF0F1F088234AF03B
:10111000EE0FFF1FBB1F661F771F881F91505040A7
:10112000A9F79E3F510580F00C94ED070C94380808
:101130005F3FE4F3983ED4F3869577956795B7952E
:10114000F795E7959F5FC1F7FE2B880F911D969548
:10115000879597F908950F931F93CF93DF93CDB79A
:10116000DEB72E970FB6F894DEBF0FBECDBF0E8947
:101170001F8986E08C831A830983888D998D81303D
:1011800020E8920710F080E090E801979E838D831D
:10119000AE01445E5F4F6A8D7B8DCE0101960E9449
:1011A000EA084D815E8157FD0AC02F8138854217BC
:1011B00053070CF49A01020F131FF80110822E96A8
:1011C0000FB6F894DEBF0FBECDBFDF91CF911F9158
:1011D0000F9108955F926F927F928F929F92AF923C
:1011E000BF92CF92DF92EF92FF920F931F93CF9314
:1011F000DF93CDB7DEB72F970FB6F894DEBF0FBEE3
:10120000CDBF6C017B018A01DC0117961C921E92F6
:10121000169713968C9181FFFEC12AE0522EF6019B
:101220009381F70193FD859193FF81917F0188233D
:1012300009F473C0853239F493FD859193FF819150
:101240007F01853229F4B60190E00E94240BE7CF9C
:10125000912C612C712CFFE1F71508F446C08B32FC
:10126000C9F1F8F48032C1F1833209F43BC083360E
:1012700009F49CC0833709F4A5C0833509F0C8C0C0
:10128000F801A190B1908F01692D70E076FC02C049
:101290006FEF7FEFC5010E940E0B4C01689477F849
:1012A00071C08D32E1F0803351F020ED280F2A30EB
:1012B00048F18E3209F04BC0689476F802C0689409
:1012C00070F8F70193FD859193FF81917F01811162
:1012D000C2CF45C0689471F8689472F8F2CF6894F0
:1012E00073F8EFCF689474F8ECCF77FC38C020ED3A
:1012F000280F2A3070F476FE05C0959C200D11242D
:10130000922EDFCF659C200D1124622E689475F813
:10131000D8CF8E32E1F476FECFCFD60116968D91DE
:101320009C912F960FB6F894DEBF0FBECDBFDF9114
:10133000CF911F910F91FF90EF90DF90CF90BF90D2
:10134000AF909F908F907F906F905F9008958C36B4
:1013500019F4689477F8B5CF883609F4B2CF982F8E
:101360009F7D9554933008F082CF0C5F1F4F8FE321
:10137000898388248394912CAE014F5F5F4F5A017B
:10138000E89477F873FC05C0862D90E088169906DE
:1013900040F18114910461F5662009F440CFB60153
:1013A00080E290E00E94240B6A94F6CFD8018C91E1
:1013B00089830E5F1F4F88248394912CFE01319600
:1013C0005F01DECFD801AD90BD908D01692D70E039
:1013D00076FC02C06FEF7FEFC5010E94190B4C0134
:1013E000CFCFB60180E290E00E94240B6A94CCCF6C
:1013F000F50177FC859177FE81915F01B60190E060
:101400000E94240B61106A94F1E08F1A9108C1CFF9
:10141000843619F0893609F081C0F80177FE77C06B
:1014200061917191819191918F01272D2F76822E5B
:1014300097FF09C090958095709561957F4F8F4F6C
:101440009F4F689487F82AE030E0AE014F5F5F4F0E
:101450005A010E94540B8A19A82EBA2C782C86FEA9
:101460000CC0E89470F8A91440F484FE05C082FC16
:1014700003C0782D7E7E772EB92C74FEA5C0FE01A8
:10148000EA0DF11D8081803309F097C0872D897E98
:10149000782E73FC0EC070FEA6C09A2CB61418F4F9
:1014A000960C9B18B62C862D8B196B1408F480E0D3
:1014B000B80EB61408F099C06B1874FE98C0B60147
:1014C00080E390E00E94240B72FE09C088E590E062
:1014D00071FC02C088E790E0B6010E94240BA914B9
:1014E00008F492C0AA94B12C9FEFA91AB90ADE01A0
:1014F00011964D01AA0EBB1EF50182915F01B60146
:1015000090E00E94240B8A149B04B1F745CF6191AF
:101510007191072E000C880B990B86CF872CE894CD
:1015200084F82AE030E0853769F0572D597F852E01
:10153000803771F118F5883571F18F3609F0EDCEED
:1015400028E030E0F80187FE2EC081919191A191B1
:10155000B1918C879D87AE87BF878F01BE016F5F7A
:101560007F4F5B01AB016C857D858E859F850E94D9
:10157000540B8A19A82EE89487F86FCF883709F0A2
:10158000CCCE84FE02C0689482F820E130E0DACF4D
:10159000689484F8F6CF74FE03C0652F6660862ECB
:1015A00020E132E0CFCF81919191AC0160E070E019
:1015B0004C875D876E877F87D0CF72FC02C0B39463
:1015C00068CFB394B39465CF872D8678882309F4C8
:1015D00060CFF5CFB60180E290E00E94240B8394A7
:1015E0008614C0F360CF8B2CFBCF612C66CF872D88
:1015F0008678882309F473CF8BE271FE80E277FC52
:101600008DE2B60190E069CFB60180E390E00E94E0
:10161000240B9A9464CF8FEF9FEF83CEFC0105904B
:10162000615070400110D8F7809590958E0F9F1FE4
:101630000895FC016150704001900110D8F7809529
:1016400090958E0F9F1F08950F931F93CF93DF9355
:10165000182F092FEB018B8181FD09C01FEF0FEFC0
:10166000812F902FDF91CF911F910F91089582FFCD
:1016700014C02E813F818C819D81281739073CF44D
:10168000E881F981CF0101969983888310838E8147
:101690009F8101969F838E83E3CFE885F985812F13
:1016A0001995892BA1F3DACFFA01AA27283051F135
:1016B000203181F1E8946F936E7F6E5F7F4F8F4F83
:1016C0009F4FAF4FB1E03ED0B4E03CD0670F781FE2
:1016D000891F9A1FA11D680F791F8A1F911DA11DC7
:1016E0006A0F711D811D911DA11D20D009F4689400
:1016F0003F912AE0269F11243019305D3193DEF6A8
:10170000CF010895462F4770405D4193B3E00FD05D
:10171000C9F7F6CF462F4F70405D4A3318F0495D48
:1017200031FD4052419302D0A9F7EACFB4E0A6952B
:101730009795879577956795BA95C9F7009761054D
:10174000710508959B01AC010A2E069457954795A3
:1017500037952795BA95C9F7620F731F841F951F98
:10176000A01D0895F894FFCFE600E800E800E80027
:10177000E800E800E800E800E800E800E800E80029
:10178000E800E800E800E800C700C700C700C7009D
:10179000C700C700C700C700C700C700E800E800CF
:1017A000E800E800E800E800E800C500EA00CE0034
:1017B000D000D200D400E800E800E800E800E8002B
:1017C000D600E800D800DA00DC00E800DE00E00027
:0417D000E200E4004F
:1017D4000100FC60DAF266B6BEE0FEF6EE3E9C7AEC
:0817E4009E8E253032580000F2
:00000001FF
